:100000000C9478010C94BF010C94BF010C94BF01B7
:100010000C94BF010C94BF010C94BF010C94BF0160
:100020000C94BF010C94BF010C94571D0C94291E15
:100030000C9486140C94BF010C94BF010C94BF0166
:100040000C94BF010C94BF010C94BF010C94BF0130
:100050000C94BF010C94EE140C94BF010C94BF01DE
:100060000C94BF010C94BF010C94BF010C94BF0110
:100070000C94BF010C94BF010C94BF010C94BF0100
:100080000C94BF010C94BF010C94BF010C94BF01F0
:100090000C94BF010C94BF010C94BF010C94BF01E0
:1000A0000C94BF010C94BF010C94BF01AC02AE02D2
:1000B000B902B002B202B402B602B802BB02BD027B
:1000C000BF02CA02C102C302C502C702C902CC02F2
:1000D0003B0A3B0A6D0A6D0AAB0ACB0A3B0C3B0C90
:1000E0000D0B3B0CBA0BBA0B2B0C3B0C3B0C340C22
:1000F000C70BC70BC70BC70BC70BC70BC70BC70B70
:10010000C70BC70BC70BC70BC70BC70BC70BC70B5F
:10011000D80BE60BED0BF40BFE0BCA0CCA0CDC0C77
:10012000DC0CD30CDC0CDC0CDC0CCA0CCA0CD80CC0
:10013000DC0CDC0CD80C961EBD1EAF1FBD1EAF1F05
:10014000091F2C1FAF1F821F911F49004A004B003F
:100150004C004D004E0000005200000050005100C5
:100160004F000403300000000C0372006F006D00AC
:10017000610063000000260354006800650052001F
:100180006F00790061006C0053007700650061002A
:1001900074007300680069007200740000000403BA
:1001A000090409023B00020100A0FA090400000151
:1001B000030101000921110100012240000705810E
:1001C0000308000A090401000103000000092111CD
:1001D00001000122C0000705820320000A1201105D
:1001E0000100000008EDFE6060010001020301054E
:1001F000010902A10185020901A1000509190129CE
:10020000051500250195057501810295017503818C
:10021000010501093009311581257F950275088195
:100220000609381581257F950175088106050C0A98
:1002300038021581257F950175088106C0C005012A
:100240000980A10185031601002603001A81002AF6
:100250008300751095018100C0050C0901A101857D
:1002600004160100269C021A01002A9C02751095B2
:10027000018100C005010906A1018505050719E0F6
:1002800029E7150025019508750181020508190166
:1002900029059505750191029501750391010507E1
:1002A000190029EF1500250195F075018102C0059F
:1002B000010906A101050719E029E71500250195A7
:1002C0000875018102950175088101050819012948
:1002D00005950575019102950175039101050719B1
:1002E0000029FF150026FF00950675088100C00053
:1002F00011241FBECFEFDAE0DEBFCDBF04B603FE90
:1003000027C08091EB019091EC01A091ED01B0919B
:10031000EE018730904BA740B04BD1F41092EB0127
:100320001092EC011092ED011092EE0114BE84B710
:10033000877F84BF0FB6F894A8958091600088618C
:1003400080936000109260000FBEE0E0F8E3099532
:1003500011E0A0E0B1E0EAEAF0E402C005900D92FD
:10036000AA31B107D9F721E0AAE1B1E001C01D929D
:10037000AB3EB207E1F70E947B1A0C9453200C9419
:10038000000081E0089581E008950C94C3011F935B
:10039000CF93DF9300D000D01F92CDB7DEB7498353
:1003A0005A832091370189819A81211112C06623D5
:1003B00049F00E94EF11182F682F89819A810E94BD
:1003C000941103C00E94C311182F69817A81812F73
:1003D00004C00E94EF1169817A810F900F900F90F5
:1003E0000F900F90DF91CF911F910C947E03FC0131
:1003F000408151816281738184810C94C7010E9484
:100400001F13811102C00E94A3130C94F4050C94D5
:10041000F70508950C9409020C940A0208950E94AD
:10042000BA0C0E940E022FEF84E39CE02150804022
:100430009040E1F700C000000C9414150F931F9337
:10044000CF93DF938C010E94F701EC01B8010E9469
:10045000C501882309F448C1C73D8CE5D80709F4D4
:10046000ABC0B0F4C531FCE5DF0768F4C2308CE501
:10047000D80708F04FC0C115ECE5DE0701F1C13027
:10048000DC4529F125C1C631DC4509F4FAC020C19B
:10049000CC3DECE5DE0771F150F4C83D8CE5D807A2
:1004A00009F4ADC0C93DDC4509F4D0C011C1CD3D52
:1004B000FCE5DF0731F1CE3DDC45A1F009C1F801D3
:1004C0008281882309F410C10E940F020DC1F80136
:1004D0008281882309F408C18091A70181608093FB
:1004E000A70102C1F8018281882309F4FDC00E949E
:1004F000A313FAC0F8018281882309F4F5C080E0D3
:1005000006C0F8018281882309F4EEC082E00E94CF
:100510001A1BEAC0F8018281882309F4DEC00E9418
:100520001F13811102C00E94A3130E943C1390E08C
:100530009093DD018093DC01FE01E350FC45E23144
:10054000F10530F4EA5AFF4F8091DC010C94F71F5B
:100550008091DC01816027C0826025C0846023C057
:10056000806121C080621FC080641DC080681BC084
:100570008460886018C08E7F16C08D7F14C08B7F0A
:1005800012C08F7E10C08F7D0EC08F7B0CC08F7706
:100590000AC08B7F877F07C087FB222720F991E065
:1005A000922790FB87F98093DC018091DC010E9407
:1005B00040130E94BA0C98C0F8018281882351F040
:1005C00010921F010E94B81490931C0180931B018C
:1005D00082E022C080911F0181110FC080911B0118
:1005E00090911C010E94C414883C910530F486E26D
:1005F0000E94710886E20E948F0982E024C0F801FF
:100600008281882361F0109220010E94B814909397
:100610001E0180931D0180E20E94F70965C0809150
:10062000200181110FC080911D0190911E010E9437
:10063000C414883C910530F487E20E94710887E277
:100640000E948F0980E20E94FE094EC0F80182815B
:100650008111D9CF809120018111F4CF80911D01AA
:1006600090911E010E94C414883C910558F780E2C5
:100670000E94FE0988E20E94710888E20E948F09A8
:1006800033C00E946F12282FF8018281409100012F
:1006900050910101882379F02A7A91E009F490E0E1
:1006A00090931A01911102C069E201C065E3CA0189
:1006B0000E940A140AC080911A01811102C069E2E5
:1006C00001C065E3CA010E9415140E94BB120CC050
:1006D00081E080931F0180932001C801DF91CF91B9
:1006E0001F910F910C94C10180E0DF91CF911F9178
:1006F0000F91089580E090E008950895272F30E04D
:10070000F901EE0FFF1F2E0F3F1FF9019CE0899F9B
:10071000E00DF11D1124E60FF11DEE0FFF1FE65B4A
:10072000FE4F859194910895880F991FFC01EE5911
:10073000FE4F859194910895CF93DF930E947E039D
:100740000E945305EC01811520E59207F0F5811513
:1007500030E4930708F024C1883E910500F5803EFF
:10076000910508F09CC1883A910570F4853A91058D
:1007700008F09FC08130910509F491C108F442C18D
:10078000049708F08CC13EC18F3B910508F49CC0D2
:10079000803C910508F436C1805C9109F4C0811554
:1007A00040E2940758F4C11581E0D80708F077C1FA
:1007B000C03FD10508F426C1D06571C1811520E381
:1007C000920708F0E4C09F70DEC0811535E59307FD
:1007D00008F044C0811544E5940708F0F8C0C1153D
:1007E00082E5D80708F5C11521E5D20708F0DBC07E
:1007F0008C2F837021E030E002C0220F331F8A95D6
:10080000E2F73C68CE0174E0969587957A95E1F71A
:100810008370382BCF70C695C69580E2C89FE001E3
:100820001124C22BD32B3BC12C2F26952695CE010C
:1008300083709927C115D34508F0BAC040E2249FC0
:1008400090011124C1E0D0E002C0CC0FDD1F8A95D9
:10085000E2F72C2B3D2BE901DC6821C1811549E52C
:100860009407A0F4C11588E5D80708F0B5C0C115F4
:1008700026E5D20708F0C6C08C2F0E94D0058F71E4
:10088000C82FD0E0DC2FCC27D06209C181153AE512
:10089000930708F4A6C090568115904208F0B2C0A4
:1008A0008D2F8F710E94D005DD27D0628F71D82BDC
:1008B000F6C0853A910509F4A8C0863A910509F079
:1008C000A7C0C2E8D0E4EBC0883A910509F4A3C000
:1008D000893A910509F4A2C08A3A910509F4A1C0A8
:1008E0008B3A910509F4A0C08C3A910509F49FC098
:1008F0008B3B910509F49EC08C3B910509F49DC08A
:100900008D3A910509F49CC0803B910509F49BC088
:100910008E3A910509F49AC08F3A910509F499C06D
:10092000813B910509F498C0823B910509F497C079
:10093000833B910509F496C0843B910509F495C069
:10094000853B910509F494C0863B910509F493C059
:10095000873B910509F492C0883B910509F491C049
:10096000893B910509F490C08D3B910509F48FC036
:100970008E3B910509F48EC08A3B910509F48DC028
:10098000C0E0D4E48CC00E949403EC0188C0992795
:10099000D3FF03C0EC01D86C82C0EC01D06C7FC0E7
:1009A000DF70D06A7CC0DC2FCC27C16FD06A77C0E3
:1009B00040E2249F90011124C1E0D0E002C0CC0F9E
:1009C000DD1F8A95E2F7C22BD32BDA6868C0D82FD7
:1009D000CC27C46FD06A63C0DC2FCC27C06FD06A2D
:1009E0005EC08F700E94D00594E0D695C7959A9509
:1009F000E1F7CF70D0E0DC2FCC27D06A8F70806E0B
:100A0000C82B4DC0C0E0D0E04AC0C1E8D0E447C028
:100A1000C3E8D0E444C0C2EED4E441C0C9EED4E49B
:100A20003EC0CAEED4E43BC0C5EBD4E438C0C6EB4C
:100A3000D4E435C0C3EBD4E432C0C4EBD4E42FC05B
:100A4000C7EBD4E42CC0CCECD4E429C0CDECD4E486
:100A500026C0C3E8D5E423C0CAE8D5E420C0C2E973
:100A6000D5E41DC0C4E9D5E41AC0C1E2D6E417C07C
:100A7000C3E2D6E414C0C4E2D6E411C0C5E2D6E4B1
:100A80000EC0C6E2D6E40BC0C7E2D6E408C0CFE68B
:100A9000D4E405C0C0E7D4E402C0CAE2D6E4CE0183
:100AA000DF91CF9108958238910549F1B0F48133F7
:100AB000910509F458C048F48932910509F44EC0F3
:100AC0008A32910509F454C008958533910509F4DB
:100AD00040C08933910599F00895833E910529F12D
:100AE00038F4803E910591F0823E9105A1F0089581
:100AF000863E9105F9F0873E910531F108952091E8
:100B0000DC0120FD3AC021FD38C008958091DC0150
:100B100080FD35C032C08091DC0182FF32C08091FF
:100B2000DC0184FD30C083EE39C08091DC0182FDA0
:100B300028C0F5CF8091DC0183FF27C08091DC01C4
:100B400084FD21C087EE2AC08091DC0183FD1DC099
:100B5000F5CF8091DC0185FD1AC01BC08091DC01BE
:100B600085FD17C014C08091DC0186FD14C015C03E
:100B70008091DC0186FD11C00EC080EE0FC089E3BC
:100B80000DC082EE0BC080E009C086EE07C089E28E
:100B900005C085E303C08AE201C081E390E00895C7
:100BA0009091DC0192FF0DC0282F2871283019F494
:100BB000877F846006C0282F2471243011F48B7F36
:100BC000886093FF0DC0282F2871283119F4877E83
:100BD000846106C0282F2471243111F48B7E886132
:100BE00094FD877E089508950C94F30508950C9460
:100BF000F605E82FF0E0EF5DFE4F8081089508953F
:100C0000E6E1F1E041E050E024E02E0F9191A92FC0
:100C1000A295AF70B0E091963C9191979F70BA0108
:100C200002C0660F771F9A95E2F7CB018095832368
:100C300091968C932E13EACFA3E1B1E041E050E00E
:100C400023E02A0F8D91E82FE295EF70F0E031A1BB
:100C50008F70BA0102C0660F771F8A95E2F7CB0149
:100C6000962F9095932391A392A1892B82A32A1367
:100C7000E9CF1092250110922101109226011092C5
:100C80002201109227011092230110922801109244
:100C9000240184E00E94DB060C94FF014F925F92D6
:100CA0006F927F928F929F92AF92BF92CF92DF927C
:100CB000EF92FF920F931F93CF93DF9326E1422E83
:100CC00021E0522EA5E2B1E020E001E010E034E0A6
:100CD000932E9A0E7D018C901C92E20189912E0137
:100CE000E82FE295EF70F0E031A18F70A80102C00B
:100CF000440F551F8A95E2F7CA01342B31A342A154
:100D0000382F3095432342A350EA5A95F1F793E1E7
:100D1000C92E91E0D92E40E050E0E60179906E01B5
:100D2000672D62956F7070E0EB01A8A06C90B12CFC
:100D3000772D7F7002C0B594A7947A95E2F7A0FC56
:100D400007C0602F042E01C0660F0A94EAF701C0A5
:100D500060E066296C934F5F5F4F43305105E9F6C1
:100D600091A1392331A392A1892B82A3119681E00D
:100D7000F7019081891201C080E0282B9A12AACF36
:100D800044E061E271E085E291E00E94DC060E94AD
:100D9000070281E0DF91CF911F910F91FF90EF90BB
:100DA000DF90CF90BF90AF909F908F907F906F908B
:100DB0005F904F9008950895FF920F931F93CF93E4
:100DC000DF938C01F62ED72FC42F222349F081E028
:100DD00080932B010E94B81490932A0180932901DB
:100DE00080912B018823C1F08091290190912A01E3
:100DF0000E94C414069780F0EF2DFD2FD8014C2FD0
:100E000050E0CD01801B910B841795071CF48D9148
:100E10008193F7CF10922B01DF91CF911F910F910A
:100E2000FF90089590933101809330010895E091EF
:100E30003001F0913101309721F00190F081E02DE7
:100E4000099480E00895E0913001F09131013097EC
:100E500099F020911201222359F02091DC0127FF03
:100E600007C0DC012C9111962C93119725E02C934F
:100E70000280F381E02D09940895E0913001F09112
:100E80003101309739F022E0DC012C930480F581A8
:100E9000E02D0994089520912E0130912F018217A1
:100EA000930771F090932F0180932E01E091300110
:100EB000F0913101309721F00680F781E02D0994FF
:100EC000089520912C0130912D018217930771F024
:100ED00090932D0180932C01E0913001F09131012C
:100EE000309721F00084F185E02D0994089585B7AD
:100EF000806885BF85B7806885BF08950895089587
:100F00000C947F0708950C9482070E9477070E9433
:100F10007E070C94800781E008950E94AF140E9420
:100F200000060E947C150C948307CF92DF92EF920B
:100F3000FF920F931F93CF93DF93CDB7DEB72B971D
:100F40000FB6F894DEBF0FBECDBF0E944E060E94C2
:100F50008B07811111C08FEF89838A831B820E94C6
:100F6000B8148160782F9D838C8349815A816B816D
:100F70008D810E943D0856C083E3C82E81E0D82EA3
:100F800000E010E0E02E802F0E94F905F60141916B
:100F90006F01F42EF82631F40F5F1F4F0430110556
:100FA00089F7D9CF9091A70191FF04C08B870E9448
:100FB000FF058B8520E030E04F2D50E0922FBA01E5
:100FC000022E02C0759567950A94E2F760FF24C06F
:100FD0002E83EF8221E030E0690102C0CC0CDD1CE1
:100FE0009A95E2F790E08C219D21892B09F420E06D
:100FF00028870E94B8148160782F9A8789874E814C
:101000005F8168858A850E943D08F801ED5CFE4F8E
:101010008081C826C08206C02F5F3F4F2330310534
:1010200069F6BACF0E941F18109132010E9417076B
:101030001817A1F00E941707809332012B960FB664
:10104000F894DEBF0FBECDBFDF91CF911F910F91FE
:10105000FF90EF90DF90CF900C940C022B960FB680
:10106000F894DEBF0FBECDBFDF91CF911F910F91DE
:10107000FF90EF90DF90CF900895CF93DF93CDB79F
:10108000DEB72B970FB6F894DEBF0FBECDBF4F83F0
:10109000588769877A878B87DE01119686E0FD0184
:1010A00011928A95E9F785E0FE01379601900D923D
:1010B0008A95E1F749815A816B817C818D819E817E
:1010C0000E94640F2B960FB6F894DEBF0FBECDBF03
:1010D000DF91CF910895FC01808191810E943012AF
:1010E0000895882309F41AC18238C1F40E941707B1
:1010F00081FD14C169E380910001909101010E947A
:101100000A140E94BB122FEF81EE94E02150804020
:101110009040E1F700C0000069E319C08338F9F49A
:101120000E94170780FDFAC063E58091000190914D
:1011300001010E940A140E94BB122FEF81EE94E07D
:10114000215080409040E1F700C0000063E58091AD
:101150000001909101010E9415140C94BB12843877
:10116000C1F40E94170782FDD9C067E48091000195
:10117000909101010E940A140E94BB122FEF81EE90
:1011800094E0215080409040E1F700C0000067E407
:10119000DECF9CEF980F913A40F4682F80910001C8
:1011A000909101010E940A14D8CF90E2980F9830D4
:1011B00050F4877091E001C0990F8A95EAF7892F62
:1011C0000E947212CACF9BE5980F933070F4853A53
:1011D00029F0863A31F083E890E005C081E890E09C
:1011E00002C082E890E00C944B0798E5980F973185
:1011F00008F08EC0883A09F445C0893A09F445C020
:101200008A3A09F445C08B3A09F445C08C3A09F48E
:1012100045C08B3B09F445C08C3B09F445C08D3A71
:1012200009F445C0803B09F445C08E3A09F445C035
:101230008F3A09F445C0813B09F445C0823B09F46B
:1012400045C0833B09F445C0843B09F445C0853B58
:1012500009F445C0863B09F445C0873B09F445C005
:10126000883B09F445C0893B09F445C08D3B09F42E
:1012700045C08E3B09F445C08A3B09F445C080E077
:1012800090E044C082EE90E041C089EE90E03EC024
:101290008AEE90E03BC085EB90E038C086EB90E0B2
:1012A00035C083EB90E032C084EB90E02FC087EB39
:1012B00090E02CC08CEC90E029C08DEC90E026C032
:1012C00083E891E023C08AE891E020C082E991E0C0
:1012D0001DC084E991E01AC081E292E017C083E268
:1012E00092E014C084E292E011C085E292E00EC068
:1012F00086E292E00BC087E292E008C08FE690E0C1
:1013000005C080E790E002C08AE292E00C94610799
:10131000803F20F00E9427170C941418089588230A
:1013200009F464C0823879F40E94170781FF5EC017
:1013300069E380910001909101010E940A140E94CA
:10134000BB1269E310C08338B1F40E94170780FF15
:101350004DC063E580910001909101010E940A1443
:101360000E94BB1263E580910001909101010E94EF
:1013700015140C94BB12843879F40E94170782FF6D
:1013800035C067E480910001909101010E940A1428
:101390000E94BB1267E4E7CF9CEF980F913A10F4DC
:1013A000682FE1CF90E2980F983050F4877091E069
:1013B00001C0990F8A95EAF7892F0E947812D9CF38
:1013C0009BE5980F933020F480E090E00C944B075D
:1013D00098E5980F973120F480E090E00C94610735
:1013E000803F20F00E948F170C94141808958823D2
:1013F00021F00E9472120C94BB120895882321F0F0
:101400000E9478120C94BB1208954F925F926F92D3
:101410007F92BF92CF92DF92EF92FF920F931F9332
:10142000CF93DF937C01D62FC72FFC010581029556
:101430000F70128111110E948F120E94681288236E
:1014400079F0112369F080E28D0F883048F082E056
:101450000E9406130E94681291E0B82EB92601C0BE
:10146000B12CCC2EC2948FE0C822D12CF601E859C1
:10147000FF4F0C94F71F8C2F807FCF70882311F0C3
:10148000C295C07F112399F0CC2309F4CFC180E22B
:101490008D0F883010F0D11104C08C2F0E94721271
:1014A00003C08C2F0E9482120E94BB12BFC18D2FDD
:1014B0000E948F09CC2309F4DEC180E28D0F8830B1
:1014C00010F0D11104C08C2F0E94781203C08C2F11
:1014D0000E9488120E94BB12CEC18C2F807FCF70D9
:1014E000803211F0C295C07FDD2319F0D130C9F0F0
:1014F00022C0112371F0002341F0013031F40E9429
:10150000A2128C2B0E94A812B6C10E94A2128C2B90
:1015100046C1002319F0013009F4ADC10E94B11297
:1015200018C0112321F0063008F0A5C10EC0053007
:1015300008F0A1C10EC0112351F0002331F0F701D2
:10154000858180FF73C18F7085838C2F28C1011125
:101550007EC18C2F2AC18C2F86958695837090E052
:10156000009719F0019761F086C1112321F08D2FAA
:101570009C2F937002C080E090E00E944B078BC1CB
:10158000112321F08D2F9C2F937002C080E090E0FA
:101590000E94610780C11123F9F0D53F51F0D63F79
:1015A00071F0D43FA9F48091D6019091D701816068
:1015B0000BC08091D6019091D701826005C08091C7
:1015C000D6019091D70184609093D7018093D60182
:1015D0008D2F0E9427171EC0D53F51F0D63F71F0C6
:1015E000D43FA9F48091D6019091D7018E7F0BC092
:1015F0008091D6019091D7018D7F05C08091D60151
:101600009091D7018B7F9093D7018093D6018D2F36
:101610000E948F170E9414183EC18C2F837009F00E
:1016200050C0111134C18D2F829586958770880F17
:10163000880F9D2F9F70492E512C612C712C082EE4
:1016400004C0440C551C661C771C0A94D2F7D4FFC6
:1016500014C00FE010E020E030E0B901A80104C0A0
:10166000440F551F661F771F8A95D2F7CB01BA0129
:10167000609570958095909503C060E070E0CB0117
:10168000C695C695C370D0E0C230D10561F0C330B5
:10169000D10581F06429752986299729219771F050
:1016A0000E94A910F4C064297529862997290E94EF
:1016B000BB10EDC00E94A910C301B2010E94971097
:1016C000E6C0112319F08C2F817001C08695882304
:1016D00009F4DDC08D2F829586958770880F880F5D
:1016E0009D2F9F70492E512C612C712C082E04C007
:1016F000440C551C661C771C0A94D2F7D4FF14C006
:101700000FE010E020E030E0B901A80104C0440F70
:10171000551F661F771F8A95D2F7CB01BA016095D6
:1017200070958095909503C060E070E0CB01C69500
:10173000C695C3704C2F50E04230510569F04330DC
:10174000510589F064297529862997294130510569
:1017500071F00E946F119BC0642975298629972911
:101760000E94811194C00E946F11C301B2010E94B6
:101770005D118DC08D2F90E0FC01E05EF109E53137
:10178000F10508F04FC0E858FF4F0C94F71FDF70C9
:101790008C2F8F71112331F00E94F6108D2F0E9433
:1017A000F70969C00E9417118D2F0E94FE0963C0BE
:1017B000112341F0053008F05EC08C2F8F710E941C
:1017C0003C1159C0063008F056C0F7CF112339F04C
:1017D0008C2F8F710E94F6104EC01123C9F38C2FED
:1017E0008F710E94171147C0112329F08C2F8F7120
:1017F0000E94E11040C00E94DC103DC0112349F05E
:10180000CF718C2F0E94F61063E08C2F0E94F11292
:1018100032C081E00E940613023068F182E00E942B
:10182000061329C0112331F0002391F28D2F0E945D
:10183000710821C0002399F2D93349F45FEF67EEB4
:1018400073E0515060407040E1F700C000008D2F00
:101850000E948F0910C04C2F4F706D2FC7010E943E
:101860007A030E94081017C04C2F4F706D2FC701CC
:101870000E947D0310C088E0C816D10441F05CF0DE
:10188000EAE0CE1AD108F2E0CF16D10420F40E948B
:1018900017070E940C02BB20F1F00E94641280FD29
:1018A0001AC0F70112820E945E120E94F610C70150
:1018B0000E94790C0E945E12DF91CF911F910F91CF
:1018C000FF90EF90DF90CF90BF907F906F905F90F0
:1018D0004F900C941711DF91CF911F910F91FF90B2
:1018E000EF90DF90CF90BF907F906F905F904F9080
:1018F00008950F931F93CF93DF93EC018881998113
:101900002B813C81232BB9F09F3F11F48F3F99F03D
:10191000CE010E941E02882371F0688179818A813C
:101920000E943B128C010E9493110E949410B801F6
:10193000CE010E94050ADF91CF911F910F9108956A
:101940000E948F120E949F120E94BB120E94AD182B
:101950000E94141880E090E00E944B0780E090E025
:101960000C94610780910001909101010E94201464
:101970000C94A00C0E947F120C94B20CE92FE295FB
:10198000EF70F0E03297EE30F105B0F4E357FF4F1F
:101990000C94F71F803F91F018F4803E68F40EC05D
:1019A000843F51F40BC0803E48F0813F29F406C0CB
:1019B00093FB882780F9089580E0089581E00895D9
:1019C0000E9430120E94BE0C0895CF93DF9300D086
:1019D00000D01F92CDB7DEB70F900F900F900F90F1
:1019E0000F90DF91CF910895CF93DF9300D000D077
:1019F00000D0CDB7DEB726960FB6F894DEBF0FBE87
:101A0000CDBFDF91CF9108951F93CF93DF93C09106
:101A1000380116E080913901C81799F0D0E01C9F79
:101A2000F0011D9FF00D1124E65CFE4F40815181B5
:101A300062817381848195810E94F40C2196C77024
:101A4000E9CFDF91CF911F91089540916A015091A4
:101A50006B0160916C0170916D0180916E019091AC
:101A60006F010C94F40C80916F0182958F7009F0D6
:101A700054C080916C01882309F44FC080913801D3
:101A8000A091390160916A0170916B0140916D01E3
:101A900050916E01B6E08A1709F43FC090E04115FD
:101AA0005105C1F17F3F11F46F3FA1F1B89FF001E3
:101AB000B99FF00D1124E65CFE4F218172132AC0FC
:101AC0002081621327C02281211124C02381348107
:101AD0002417350710F421503109241B350B283CFD
:101AE0003105C0F420916F012F70206120936F01A8
:101AF00026E0289FF001299FF00D1124E15CFE4FA4
:101B000080818F70806180838AE691E00E94790CE9
:101B10000C94040D01968770BECF0895CF92DF928A
:101B2000EF92FF920F931F93CF93DF93CDB7DEB762
:101B300062970FB6F894DEBF0FBECDBF8C0185E073
:101B4000F801DE011D9601900D928A95E1F7D8010A
:101B50004C9111965C91119712966C911297139675
:101B6000CD90DC90149730916A0170916B01809157
:101B70006D0190916E01009709F46BC17F3F19F4DC
:101B80003F3F09F466C1E0906C01EE2009F4C0C04B
:101B900020916F01C816D90628F0F601E81BF90B51
:101BA000CF0104C0809590958C0D9D1DFF24F3946A
:101BB000883C910578F0F12C207F09F0C6C07C2D7F
:101BC000D98AC88A89890E94E50C8AE691E00E9438
:101BD000790CB1C0822F807F09F046C0751314C004
:101BE000341312C0611110C02F70206120936F0157
:101BF0000E94250D8AE691E00E94790C80916F0188
:101C0000D80115968C932EC0CD2819F15F3F11F4A1
:101C10004F3FF9F0F62E61111CC0809138012091E0
:101C2000390136E0821709F45AC090E0389FF0017C
:101C3000399FF00D1124E65CFE4F7181571306C0E9
:101C40007081471303C07281711103C001968770C0
:101C5000E9CFF62E662309F427C180916F018160D8
:101C600080936F01F12C20C1751308C0341306C096
:101C7000611104C080916F01D801C3C04D875E8798
:101C80008D859E856A8B0E94E00C6A898823E1F12C
:101C90006623D1F120916F01822F82958F7090E0A1
:101CA000029774F080916A0190916B0198878F83FD
:101CB0001986DB86CA862C87CE0107960E94790C8E
:101CC00086E0F801AAE6B1E001900D928A95E1F76D
:101CD0000E94330D0E94250DFF24F394E5C04D872B
:101CE0005E878D859E850E943012292F22952F7048
:101CF00030E0223031050CF0CBC09F7009F0C5C038
:101D0000805E883008F4D0C0C8010E94790CE4CF0E
:101D1000C816D90608F453C0F601E81BF90BCF0129
:101D2000883C910508F450C0F12C7C2DD98AC88AD2
:101D300089890E94E50CEAE6F1E086E0DF011D9268
:101D40008A95E9F70E94250DAFC0751314C03413AE
:101D500012C0611110C080916F01F8018583C80124
:101D60000E94790C86E0EAE6F1E0DF011D928A9597
:101D7000E9F7FE2C99C04D875E878D859E856A8B1D
:101D80000E94E00C6A89882309F4BECF662309F417
:101D9000BBCF20916F01822F82958F7090E00297C8
:101DA0000CF48ECF80916A0190916B019A838983A4
:101DB0001B82DD82CC822E83CE0101967FCF80955F
:101DC00090958C0D9D1DACCFF62E662309F49CCF0B
:101DD00075132EC034132CC020916F0120FD1FC03D
:101DE000822F82958F70D9F0D80115962C93159774
:101DF0008F3049F08F5F982F9295907F822F8F7050
:101E0000892B15968C93C8010E94790C86E0F80105
:101E1000AAE6B1E001900D928A95E1F793CF86E0B2
:101E2000F801AAE6B1E001900D928A95E1F73CC075
:101E30004D875E878D859E850E94E00C811140CF85
:101E400080916F01816080936F01C8010E94790CBD
:101E50002BC0662309F458CF4D875E878D859E85FC
:101E60000E94E00CF82E882309F44ECF86E0F8019A
:101E7000AAE6B1E001900D928A95E1F78AE691E039
:101E80000E946B080E94330D5DCF811139CF0CC0C9
:101E9000243031050CF038CF9F7009F431CFF801B0
:101EA0009581907F09F02CCF8F2D62960FB6F89414
:101EB000DEBF0FBECDBFDF91CF911F910F91FF907D
:101EC000EF90DF90CF9008951F93CF93DF93CDB71E
:101ED000DEB72C970FB6F894DEBF0FBECDBF4F8391
:101EE000588769877A878B879C87CE0107960E94DF
:101EF0008E0D882369F08F8198852A853B85232B59
:101F0000F1F19F3F09F063C08F3F09F060C037C017
:101F100086E0FE013796DE01119601900D928A95BA
:101F2000E1F76F817885EA85FB85309741F17F3F46
:101F300011F46F3F21F12091390130E0C901019680
:101F4000877099274091380150E08417950709F46C
:101F500047C069837A83FD83EC8396E0929FD0012A
:101F6000939FB00D1124A65CBE4FFE0131960190E7
:101F70000D929A95E1F7809339010E94040D16E0C5
:101F800080913801909139018917C1F1189FC001E2
:101F90001124865C9E4F0E948E0D882379F1E0917A
:101FA00038011E9FF0011124E65CFE4F40815181F3
:101FB00062817381848195810E94F40C8091380143
:101FC00090E001968770992780933801D9CF4F818F
:101FD000588569857A858B859C850E94F40CCFCFC6
:101FE0000E94BA0C1092390110923801EAE6F1E031
:101FF00086E0DF011D928A95E9F7C1CF2C960FB6D6
:10200000F894DEBF0FBECDBFDF91CF911F91089531
:10201000EF92FF920F931F93CF93DF938C01892B45
:1020200009F46CC0F12CEE24E394E8012196F80148
:102030008491843740F4843008F051C0813081F0BD
:10204000823019F15BC0853709F444C0A8F19CE7E0
:10205000980F903708F052C08F770E948F0941C0C7
:102060000E5F1F4FFE01C49180E28C0F883048F450
:10207000C7708E2D01C0880FCA95EAF70E94921290
:1020800014C08C2F0E9471082DC00E5F1F4FFE01DF
:10209000C49180E28C0F883058F4C7708E2D01C037
:1020A000880FCA95EAF70E9498120E94BB121AC0C4
:1020B0008C2F0E948F0916C00E5F1F4FFE01C49126
:1020C000CC2381F08FE99FE00197F1F700C0000079
:1020D000C150F6CF0E5F1F4FFE01F49003C00E9467
:1020E00071088E018F2D882309F49FCFEFE9FFE05F
:1020F0003197F1F700C000008150F5CFDF91CF910B
:102100001F910F91FF90EF90089508950C94851002
:102110000E94861060937E0170937F0180938001FE
:10212000909381010C94A00C08950C9488100F9347
:102130001F9300917E0110917F01209180013091C9
:102140008101602B712B822B932B1F910F910C948B
:1021500088100F931F9300917E0110917F012091B1
:1021600080013091810160237123822393231F9189
:102170000F910C9488100F931F9300917E01109182
:102180007F01209180013091810160277127822792
:1021900093271F910F910C94881008950C94CD10E3
:1021A0000E94CE1060937A0170937B0180937C0132
:1021B00090937D010C94A00C60E070E0CB010C9436
:1021C000D0100F931F9341E050E060E070E08A016F
:1021D0009B0104C0000F111F221F331F8A95D2F7E5
:1021E000C901B8011F910F910C94D0100F931F9348
:1021F00041E050E060E070E004C0440F551F661FEE
:10220000771F8A95D2F780917A0190917B01A091F6
:102210007C01B0917D018A019B01082B192B2A2B8F
:102220003B2BC901B8011F910F910C94D0100F9353
:102230001F9341E050E060E070E004C0440F551F80
:10224000661F771F8A95D2F74095509560957095D7
:1022500080917A0190917B01A0917C01B0917D01E8
:102260008A019B01082319232A233B23C901B801B2
:102270001F910F910C94D0100F931F9341E050E0E9
:1022800060E070E004C0440F551F661F771F8A95F9
:10229000D2F780917A0190917B01A0917C01B0915D
:1022A0007D018A019B01082719272A273B27C9019D
:1022B000B8011F910F910C94D0100F931F930091B0
:1022C0007A0110917B0120917C0130917D01602B7E
:1022D000712B822B932B1F910F910C94D0100F9385
:1022E0001F9300917A0110917B0120917C01309124
:1022F0007D0160237123822393231F910F910C94FE
:10230000D0100F931F9300917A0110917B012091BF
:102310007C0130917D0160277127822793271F91CF
:102320000F910C94D0100895292F220F920F890F2E
:10233000A82FA695A695A695877051E001C0550FC8
:102340008A95EAF785E0A89FD001112420E030E0CB
:1023500070E0F901EA0FFB1FE059FE4F4081CB010D
:10236000022E02C0969587950A94E2F7817099270C
:10237000819584278523842780832F5F3F4F2530D5
:10238000310539F70895292F220F920F890F682FF1
:10239000669566956695982F977085E0689FB00161
:1023A000112440E050E080E0FA01E60FF71FE05909
:1023B000FE4F208130E0092E02C0369527950A9401
:1023C000E2F721703327042E01C0220F0A94EAF7A6
:1023D000822B4F5F5F4F4530510531F70895BF9213
:1023E000CF92DF92EF92FF920F931F93CF93DF93E1
:1023F0008C01C0907E01D0907F01E0908001F09030
:10240000810180917A0190917B01A0917C01B09132
:102410007D01C82AD92AEA2AFB2ACFE1D0E0D701D8
:10242000C6010C2E04C0B695A795979587950A947A
:10243000D2F780FF07C0BC2EB8018C2F0E949C03EE
:10244000019719F4219758F7B12C8B2DDF91CF917B
:102450001F910F91FF90EF90DF90CF90BF90089564
:10246000CF93DF93EC010E94EF11BE010E949C0309
:10247000DF91CF9108951F93CF93DF93EB0190915C
:102480003701992321F0CB010E94301213C0882319
:1024900049F0CB010E94EF11182F682FCE010E9446
:1024A000941104C0CB010E94C311182FBE01812FCB
:1024B0000E949C03DF91CF911F910895809182012A
:1024C00085958595859508958091820187700895F9
:1024D00090918201977081E009F480E008958091E5
:1024E000A60108959091A601892B8093A6010895D5
:1024F00080959091A60189238093A601089510925A
:10250000A60108959091A501892B8093A5010895B6
:1025100080959091A50189238093A501089510923B
:10252000A50108959091A401892B8093A401089599
:1025300080959091A40189238093A401089510921D
:10254000A401089580918301089508950C94A51223
:1025500090918301981721F0809383010C94A61227
:10256000089580918301882329F01092830180E0EF
:102570000C94A6120895E0910001F0910101809160
:10258000A6018083E0910001F0910101908180918A
:10259000A501892B8083E0910001F09101019081D8
:1025A0008091A401892B808380918301882381F00D
:1025B000E0910001F09101019081892B808380914D
:1025C0000001909101010E94A51381110E94B11296
:1025D00080910001909101010C94230708950C94BF
:1025E000EE1298E0899F90011124262B20938201FE
:1025F0000E94F610809182018595859585950C94B1
:10260000EF121092820180E00C94EF12209182016F
:102610008095822380938201982F977079F430E01F
:10262000482F082E000C550B2417350739F08595D7
:10263000859585950E9417110C940113089580E0EB
:1026400090E00E94192021E08D3E9E4F09F020E08D
:10265000822F089582E090E00C941120682F82E090
:1026600090E00C941F2083E090E00C941120682FE0
:1026700083E090E00C941F2084E090E00C94112003
:10268000682F84E090E00C941F20AB01BC018FE028
:1026900090E00C943120AB01BC0183E190E00C94FC
:1026A000312060E070E0CB010C944B1360E070E0EF
:1026B000CB010E9445130C9451136DEE7EEF80E028
:1026C00090E00E943D2060E082E090E00E941F20A8
:1026D00060E083E090E00E941F2010927E01109243
:1026E0007F01109280011092810160E084E090E00F
:1026F0000E941F2060E085E090E00E941F2060E0C3
:1027000086E090E00E941F206FEF87E090E00E943B
:102710001F2040E050E0BA0188E090E00E943120A4
:1027200060E08DE090E00E941F2040E050E0BA01A0
:1027300088E190E00E94312060E087E190E00E9413
:102740001F200C9456130C945D13FC01329680915B
:102750001201882331F08091DC0187FF02C09EE1E5
:1027600001C096E080E0915028F021912223D9F316
:102770008F5FF9CF08959C01FC0132969FEF80E0B6
:102780004191461789F09F3F19F4411101C0982FDC
:102790008F5F8630A9F79F3F39F0F901E90FF11DEE
:1027A00097FDFA95628308950895FC013296089684
:1027B0002081261301C010823196E817F907C1F76E
:1027C0000895262F2695269526952E3168F4FC012E
:1027D000E20FF11D677021E030E001C0220F6A9521
:1027E000EAF78281282B22830895262F26952695A5
:1027F00026952E3170F4FC01E20FF11D677021E087
:1028000030E001C0220F6A95EAF7209582812823E3
:102810002283089520911201222329F02091DC01C6
:1028200027FD0C94E1130C94BB1320911201222379
:1028300029F02091DC0127FD0C94F5130C94D5139D
:1028400020911201FC013296222331F08091DC01AB
:1028500087FF02C08EE101C086E0DF011D928A95EC
:10286000E9F7089508950C9432140E94331480916E
:10287000E201843049F11092A80120E488E190E05F
:102880000FB6F894A895809360000FBE2093600067
:1028900080E00E940C020E94331483B7817F846021
:1028A00083BF83B7816083BF7894889583B78E7F19
:1028B00083BF0FB6F894A8958091600088618093DB
:1028C0006000109260000FBE089508950895CF93A0
:1028D0000E9465140E944E060E946614C0E08C2F70
:1028E0000E94F905811104C0CF5FC430C1F701C057
:1028F00081E0CF91089508950C947B140E94BA0C46
:102900000E9417070E940C020C947C141F920F92D5
:102910000FB60F9211248F939F93AF93BF93809123
:10292000A801811113C08091D8019091D901A09183
:10293000DA01B091DB014196A11DB11D8093D80150
:102940009093D901A093DA01B093DB01BF91AF91CD
:102950009F918F910F900FBE0F901F90189582E05E
:1029600084BD93E095BD9AEF97BD80936E00089566
:102970002FB7F8948091D8019091D901A091DA01F4
:10298000B091DB012FBF0895CF92DF92EF92FF92BB
:102990000F931F932FB7F8944091D8015091D9010C
:1029A0006091DA017091DB012FBF6A017B01EE2497
:1029B000FF248C0120E030E0C016D106E206F306C9
:1029C00010F4415051099A01281B390BC9011F917C
:1029D0000F91FF90EF90DF90CF90089578941F9221
:1029E0000F920FB60F9211248F939F93AF93BF93C3
:1029F0008091D8019091D901A091DA01B091DB01C9
:102A00000196A11DB11D8093D8019093D901A09387
:102A1000DA01B093DB01BF91AF919F918F910F903D
:102A20000FBE0F901F90189581E08093E00080E228
:102A30008093D8001092C9008FE19EE40197F1F7CE
:102A400000C0000087E090EBDC018093EB019093E5
:102A5000EC01A093ED01B093EE019CE088E10FB68C
:102A6000F894A895809360000FBE90936000FFCF0C
:102A7000CF92DF92EF92FF920F931F93CF93C0E01C
:102A8000E82EF12C8C2F0E94F90500E010E0C82EF2
:102A9000D12CC601002E02C0959587950A94E2F7C5
:102AA00080FD06C00F5F1F4F0330110591F70AC06C
:102AB000602F7C2F80E00E947E03E816F90691F7D4
:102AC00081E004C0CF5FC430E9F680E0CF911F9170
:102AD0000F91FF90EF90DF90CF900895CF93C82F84
:102AE0008CE20E943815882321F08C2FCF910C9412
:102AF000381580E0CF910895CF930E941F13811164
:102B000002C00E94A313C5E6C15049F00E944E06C0
:102B10008FE39CE90197F1F700C00000F5CF89E24F
:102B20000E946E1581110FC18AE20E946E158111FB
:102B30000E94A31385E00E946E1581110E94141556
:102B40000E942A138093A70187E00E946E158823B4
:102B5000A9F18BE10E946E15882351F08091A701A5
:102B600081FB222720F991E0922790FB81F90EC08A
:102B70008EE00E946E15882361F08091A70182FB90
:102B8000222720F991E0922790FB82F98093A701F8
:102B900015C080E10E946E159091A701882341F035
:102BA00093FB222720F981E0822780FB93F904C060
:102BB000892F809580FB90F99093A7018091A701C0
:102BC0000E942E130E943C1390E09093DD018093AD
:102BD000DC0180EE0E946E15882341F08091DC01BB
:102BE000982F909590FB80F98093DC0189E30E94F7
:102BF0006E15882359F08091DC0181FB222720F992
:102C000091E0922790FB81F98093DC0182EE0E9493
:102C10006E15882359F08091DC0182FB222720F970
:102C200091E0922790FB82F98093DC0186EE0E946E
:102C30006E15882359F08091DC0183FB222720F94F
:102C400091E0922790FB83F98093DC0183EE0E9450
:102C50006E15882359F08091DC0184FB222720F92E
:102C600091E0922790FB84F98093DC0185E30E9438
:102C70006E15882359F08091DC0185FB222720F90D
:102C800091E0922790FB85F98093DC0181E30E941B
:102C90006E15882359F08091DC0186FB222720F9EC
:102CA00091E0922790FB86F98093DC0181E10E94FC
:102CB0006E15882359F08091DC0187FB222720F9CB
:102CC00091E0922790FB87F98093DC018091DC01F1
:102CD0000E94401387E20E946E15C82F8EE10E9469
:102CE0006E158111C2608FE10E946E158111C46062
:102CF00080E20E946E158111C86081E20E946E150B
:102D00008111C06182E20E946E158111C06283E26E
:102D10000E946E158111C06484E20E946E158823A2
:102D200011F0C06802C0CC2329F08C2F0E94371309
:102D30006C2F03C00E943313682F70E080E090E096
:102D4000CF910C949510CF9108958091AC0180FFA4
:102D50000BC06091050185E0689FB0011124759555
:102D60006795759567952BC081FF09C06091050136
:102D700085E0689FB00111247595679520C082FF9A
:102D800007C06091050185E0689FB001112417C05C
:102D90009091AB019923D1F060910401961788F7C7
:102DA0002091050185E0289F90011124929FA001A8
:102DB000939F500D112470E0CA010E94E31F6038F8
:102DC000710540F46115710539F002C065E070E0ED
:102DD000862F08958FE7089581E008958091AC01D2
:102DE00080FF08C06091030170E075956795759547
:102DF000679521C081FF06C06091030170E0759561
:102E0000679519C082FF04C06091030170E010C093
:102E10009091AB019923C1F0609102019617A0F740
:102E200080910301899FC001112470E00E94E31F7B
:102E30006038710528F46115710521F0862F089519
:102E40008FE7089581E0089561E070E0F4CF803F5E
:102E500021F40E94A516819504C0813F29F40E94A7
:102E6000A5168093B0010895823F21F40E94A51613
:102E7000819504C0833F29F40E94A5168093AF0179
:102E80000895893F19F40E94EE1605C08A3F31F477
:102E90000E94EE1681958093B10108958B3F21F435
:102EA0000E94EE16819504C08C3F29F40E94EE1614
:102EB0008093B2010895843F21F48091AE01816036
:102EC00017C0853F21F48091AE01826011C0863F1A
:102ED00021F48091AE0184600BC0873F21F4809182
:102EE000AE01886005C0883F31F48091AE018061F9
:102EF0008093AE0108958D3F21F48091AC018160F3
:102F00000BC08E3F21F48091AC01826005C08F3FE1
:102F100029F48091AC0184608093AC010895803FD6
:102F200039F48091B00187FF6CC01092B00169C084
:102F3000813F29F48091B0011816BCF362C09091D2
:102F4000AF01823F29F497FF5CC01092AF0159C0D6
:102F5000833F19F41916CCF354C0893F41F4809192
:102F6000B10118160CF04DC01092B1014AC08A3F51
:102F700029F48091B10187FF44C0F6CF8B3F39F42B
:102F80008091B20187FF3DC01092B2013AC08C3FE0
:102F900029F48091B2011816BCF333C0843F21F4A8
:102FA0008091AE018E7F17C0853F21F48091AE01E4
:102FB0008D7F11C0863F21F48091AE018B7F0BC0C5
:102FC000873F21F48091AE01877F05C0883F31F4AF
:102FD0008091AE018F7E8093AE0113C08D3F21F4AE
:102FE0008091AC018E7F0BC08E3F21F48091AC01AB
:102FF0008D7F05C08F3F29F48091AC018B7F80933A
:10300000AC018091AF0181110EC08091B00181119E
:103010000AC08091B101811106C08091B201811175
:1030200002C01092AB0108958DEA91E00E943D0725
:103030000E94B8149093AA018093A90108951F9348
:10304000CF93DF938091A9019091AA010E94C414AB
:10305000AC019091AB01992321F02091060130E061
:1030600006C0209107018AE0289F90011124421791
:10307000530708F46EC08091AF01C091B001D091A8
:10308000B1011091B201811107C0C1115EC0D1110F
:103090005CC011115AC05DC09F3F19F09F5F9093B3
:1030A000AB01181624F40E94A5168093AF018091FD
:1030B000AF0187FF05C00E94A51681958093AF01DF
:1030C0001C1624F40E94A5168093B0018091B001D3
:1030D00087FF05C00E94A51681958093B00140919D
:1030E000AF01442379F03091B001332359F025EB3F
:1030F0004203A00111245093AF013203C0011124F7
:103100009093B0011D1624F40E94EE168093B10135
:103110008091B10187FF05C00E94EE1681958093D2
:10312000B101111624F40E94EE168093B201809131
:10313000B20187FF05C00E94EE1681958093B2010F
:10314000DF91CF911F910C9414189F3F09F0A6CFE7
:10315000AECFDF91CF911F910895EDEAF1E086E0C7
:10316000DF011D928A95E9F71092AB011092AC0134
:1031700008958091D30108950F931F93CF93DF9308
:1031800000D01F92CDB7DEB78C010E942A1B82307F
:1031900011F0843021F584E089831B830A8382E067
:1031A0008093E9008FEF9091E800815095FD06C073
:1031B00095ED9A95F1F700008111F5CF8091E80027
:1031C00085FF0DC040E050E063E070E0CE01019665
:1031D0000E94471B8091E8008E778093E8000F9053
:1031E0000F900F90DF91CF911F910F910895CF9382
:1031F000DF9300D01F92CDB7DEB72091E2012430DB
:1032000031F523E02983805891099B838A8382E0EA
:103210008093E9008FEF9091E800815095FD06C002
:1032200095ED9A95F1F700008111F5CF8091E800B6
:1032300085FF0DC040E050E063E070E0CE010196F4
:103240000E94471B8091E8008E778093E8000F90E2
:103250000F900F90DF91CF910895CF93DF93EC0102
:103260000E942A1B823011F08430F9F482E08093AE
:10327000E9009FEF8091E800915085FD06C085ED43
:103280008A95F1F700009111F5CF8091E80085FF54
:103290000CC040E050E066E070E0CE010E94471BA9
:1032A0008091E8008E778093E800DF91CF910895B8
:1032B000CF93DF93EC010E942A1B823011F08430FF
:1032C000D9F580911201882339F08091DC0187FFC4
:1032D00003C060E282E002C068E081E08093E90020
:1032E0008FEF9091E800815095FD06C095ED9A957D
:1032F000F1F700008111F5CF8091E80085FF1CC037
:1033000080911201811105C040E050E068E070E05A
:1033100003C070E040E050E0CE010E94471B809166
:10332000E8008E778093E80080E2FE01A3EBB1E035
:1033300001900D928A95E1F7DF91CF9108958091E8
:10334000E101811109C00E94DC1C0E94391D80919D
:10335000E20084608093E20008951092E1010895F4
:10336000089508950C947E1442E061EC81E00E947F
:10337000561C42E261EC82E00C94561C8091E40100
:10338000833009F460C030F4813071F0823009F488
:1033900099C008958A3009F485C08B3009F46BC058
:1033A000893009F0A7C020C08091E301813A09F07B
:1033B000A1C08091E800877F8093E8008091E701B9
:1033C0009091E801892B21F460E283EB91E003C046
:1033D00060E080E090E070E00E94921B8091E80045
:1033E0008B778093E80008958091E301813209F0A2
:1033F00081C08091E7019091E801029708F07AC0BE
:103400008091E800877F8093E8008091E80082FD4A
:1034100005C08091E2018111F8CF6CC02091F300CA
:103420008091F20090E0922B029729F48091F100B4
:103430008B7F813021F48091F1008093D3018091C2
:10344000E8008B7753C08091E301813A09F052C0C4
:103450008091E7019091E801892B09F04BC08091A0
:10346000E800877F8093E8008091E80080FFFCCF30
:103470008091120136C08091E3018132D9F58091AB
:10348000E7019091E801892BA9F58091E800877FF9
:103490008093E8000E948B1C8091E50180931201CB
:1034A0000C94BA0C8091E301813221F58091E800FF
:1034B000877F8093E8000E948B1C8091E6018093B7
:1034C000D40108958091E301813AA1F48091E8004C
:1034D000877F8093E8008091E80080FFFCCF809197
:1034E000D4018093F1008091E8008E778093E8000A
:1034F0000C948B1C089584B7877F84BF0FB6F89413
:10350000A8958091600088618093600010926000AF
:103510000FBE80E880936100109261000E948507D1
:103520000E94DC1C0E94391D8091E200846080931F
:10353000E20078940E94C81F0E948D0788E091E005
:103540000E9412078091E201853069F40E943514CF
:103550008091E0018823B1F30E946714882391F3DE
:103560000E94311BEFCF0E949507ECCF0C94B81A44
:10357000292F332723303105C9F064F42130310578
:1035800081F02230310509F04CC08BE390E022EA53
:1035900031E04BC02132310521F12232310589F170
:1035A00040C082E190E02DED31E03FC099278130AD
:1035B000910571F02CF4892BA1F5EEE9F1E00DC035
:1035C0008230910541F0039761F5E2E6F1E005C034
:1035D000E6E7F1E002C0E8E6F1E0849190E09F01C7
:1035E00024C06115710541F061307105D1F489E0A5
:1035F00090E02DEC31E019C089E090E024EB31E05F
:1036000014C06115710541F06130710551F480EC11
:1036100090E02FEE31E009C080E490E02FEA32E044
:1036200004C080E090E020E030E0FA0131832083A4
:1036300008950895CF93C82F0E94191BC093D501F8
:10364000CF9108958091E201843011F081E00895D6
:1036500082E008958091D501811102C00C94221B53
:10366000089580E189BD82E189BD09B400FEFDCFE6
:103670008091D8008F7D8093D8008091E000826097
:103680008093E0008091E00081FDFCCF0895CF920F
:10369000DF92EF92FF920F931F93CF93DF93EC0192
:1036A0008B016A010E94AA1C811133C0C114D1048C
:1036B00039F0F60180819181081B190BC80FD91FC1
:1036C000E12CF12C0115110519F18091E80085FD1F
:1036D00016C08091E8008E778093E800C114D10471
:1036E00049F0F60180819181E80EF91EF182E082B5
:1036F00085E00FC00E94AA1C882321F30AC089918B
:103700008093F10001501109FFEFEF1AFF0ADACFA1
:1037100080E0DF91CF911F910F91FF90EF90DF90AC
:10372000CF9008952091E9013091EA0126173707DB
:1037300048F06115710539F42091E8002E77209347
:10374000E80001C0B90140E061157105A9F12091BF
:10375000E201222309F443C0253009F442C020913C
:10376000E80023FD40C02091E80022FD32C02091F6
:10377000E80020FFE9CF4091F3002091F20030E013
:10378000342BFC01CF016115710559F0283031054A
:1037900040F481918093F100615071092F5F3F4F98
:1037A000F1CF41E02830310509F040E02091E800F8
:1037B0002E772093E800C8CF4111C9CF0AC080916D
:1037C000E201882361F0853061F08091E80083FD9B
:1037D0000AC08091E80082FFF2CF80E0089582E085
:1037E000089583E0089581E008952091E9013091E2
:1037F000EA012617370748F06115710539F4209161
:10380000E8002E772093E80001C0B901FC0120E018
:103810006115710591F18091E201882309F440C09E
:10382000853009F43FC08091E80083FD3DC0809160
:10383000E80082FD2FC08091E80080FFE9CF209151
:10384000F3008091F20090E0922B6115710559F020
:103850008830910540F424912093F1003196615015
:1038600071090196F2CF21E0089709F020E08091DC
:10387000E8008E778093E800CBCF2111CCCF0AC02F
:103880008091E201882361F0853061F08091E80049
:1038900083FD0AC08091E80082FFF2CF80E00895A6
:1038A00082E0089583E0089581E00895982F97308D
:1038B00058F59093E900981739F07091EC00209139
:1038C000ED005091F00003C0242F762F50E021FF2F
:1038D00019C03091EB003E7F3093EB003091ED004A
:1038E0003D7F3093ED003091EB0031603093EB0081
:1038F0007093EC002093ED005093F0002091EE00C7
:1039000027FF07C09F5FD3CF8F708093E90081E0CE
:10391000089580E008958091E30187FF11C08091B0
:10392000E80082FD05C08091E2018111F8CF11C04D
:103930008091E8008B770BC08091E201882349F0E9
:103940008091E80080FFF8CF8091E8008E77809327
:10395000E80008952091E4003091E50095E640915B
:10396000EC00842F817040FF22C08091E80080FD30
:103970001CC08091E201882391F0853091F0809104
:10398000EB0085FD10C04091E4005091E500421726
:10399000530729F39A01915011F784E0089582E0CA
:1039A000089583E0089581E0089580E008954091AE
:1039B000E80042FFDECF08950E944A1D0E94521D7A
:1039C000E0EEF0E0808181608083E8EDF0E08081CE
:1039D0008F77808319BCA7EDB0E08C918E7F8C939C
:1039E00080818F7E80831092E10108950F931F9351
:1039F000CF93DF930E944A1D0E94521DC8EDD0E074
:103A000088818F77888388818068888388818F7D8B
:103A1000888319BC1092E2011092DE011092E0013D
:103A20001092DF0100EE10E0F80180818B7F80832F
:103A300088818160888342E060E080E00E94561CBB
:103A4000E1EEF0E080818E7F8083E2EEF0E0808125
:103A500081608083808188608083F80180818E7F8F
:103A60008083888180618883DF91CF911F910F913E
:103A70000895E8EDF0E080818F7E8083E7EDF0E04F
:103A800080818160808384E082BF81E08093E10156
:103A90000C94F61CE8EDF0E080818E7F808310921C
:103AA000E20008951092DA001092E10008951F924A
:103AB0000F920FB60F9211242F933F934F935F9362
:103AC0006F937F938F939F93AF93BF93EF93FF93E6
:103AD0008091E10082FF0BC08091E20082FF07C06D
:103AE0008091E1008B7F8093E1000E94C71F80914D
:103AF000DA0080FF1FC08091D80080FF1BC080913A
:103B0000DA008E7F8093DA008091D90080FF0DC0AB
:103B100080E189BD82E189BD09B400FEFDCF81E06D
:103B20008093E2010E949F1905C019BC1092E20126
:103B30000E94AD198091E10080FF19C08091E200E0
:103B400080FF15C08091E2008E7F8093E20080911B
:103B5000E20080618093E2008091D80080628093CF
:103B6000D80019BC85E08093E2010E94B1198091D0
:103B7000E10084FF30C08091E20084FF2CC080E12E
:103B800089BD82E189BD09B400FEFDCF8091D800D6
:103B90008F7D8093D8008091E1008F7E8093E1003B
:103BA0008091E2008F7E8093E2008091E20081604C
:103BB0008093E2008091DE01882311F084E007C049
:103BC0008091E30087FD02C081E001C083E0809323
:103BD000E2010E94B2198091E10083FF29C0809127
:103BE000E20083FF25C08091E100877F8093E100A0
:103BF00082E08093E2011092DE018091E1008E7FED
:103C00008093E1008091E2008E7F8093E2008091BA
:103C1000E20080618093E20042E060E080E00E9488
:103C2000561C8091F00088608093F0000E94B019CB
:103C3000FF91EF91BF91AF919F918F917F916F9184
:103C40005F914F913F912F910F900FBE0F901F905A
:103C500018951F920F920FB60F9211242F933F9336
:103C60004F935F936F937F938F939F93AF93BF9384
:103C7000CF93DF93EF93FF93C091E900CF708091D2
:103C8000EC00D82FD17080FDD0E81092E90080912F
:103C9000F000877F8093F00078940E946D1E109250
:103CA000E9008091F00088608093F000CD2BCF7008
:103CB000C093E900FF91EF91DF91CF91BF91AF9158
:103CC0009F918F917F916F915F914F913F912F9134
:103CD0000F900FBE0F901F9018951F93CF93DF93F7
:103CE000CDB7DEB7AA970FB6F894DEBF0FBECDBF33
:103CF000E3EEF1E088E08E0F9091F10091938E1346
:103D0000FBCF0E94BE198091E80083FF28C18091FB
:103D1000E3019091E401492F50E04A30510508F049
:103D20001EC1FA01E556FF4F0C94F71F803821F0B1
:103D3000823809F014C108C08091DF019091E00140
:103D4000992389F082600FC08091E7018F708730DE
:103D500008F005C18093E9008091EB0085FB88277E
:103D600080F91092E9009091E800977F9093E80025
:103D70008093F1001092F100D0C0282F2D7F09F020
:103D8000EEC0882319F0823061F0E9C08091E5012E
:103D9000813009F0E4C0933009F080E08093E001C5
:103DA0002EC08091E50181112AC08091E7018F70BA
:103DB0002FEF280F263008F0D2C08093E900209121
:103DC000EB0020FF1CC0933021F48091EB00806257
:103DD00014C09091EB0090619093EB0021E030E0F3
:103DE000A90102C0440F551F8A95E2F74093EA00EB
:103DF0001092EA008091EB0088608093EB001092B3
:103E0000E9008091E800877F8093E8000E948B1C86
:103E1000A6C08111A4C01091E5011F778091E30035
:103E20008078812B8093E3008091E800877F8093E6
:103E3000E8000E948B1C8091E80080FFFCCF8091FD
:103E4000E30080688093E300111102C082E001C0AA
:103E500083E08093E20183C08058823008F07FC005
:103E60008091E5019091E6018C3D53E0950779F54D
:103E700083E08A838AE289834FB7F894DE01139640
:103E800020E03EE051E2E32FF0E050935700E49150
:103E900020FF03C0E295EF703F5FEF708E2F90E040
:103EA000EA3010F0C79601C0C0968D939D932F5FA6
:103EB000243149F74FBF8091E800877F8093E80065
:103EC0006AE270E0CE0101960E94921B15C06091DB
:103ED000E7017091E801AE014F5F5F4F0E94B61A93
:103EE000BC01892BE1F19091E800977F9093E80065
:103EF00089819A810E94F51B8091E8008B778093DD
:103F0000E8002DC0803859F58091E800877F8093C4
:103F1000E8008091DE018093F1008091E8008E77C7
:103F200073CF81111CC09091E5019230C0F4809153
:103F3000E800877F8093E8009093DE010E948B1C4D
:103F40008091DE01811106C08091E30087FD02C0EF
:103F500081E001C084E08093E2010E94B419809165
:103F6000E80083FF0AC08091E800877F8093E80023
:103F70008091EB0080628093EB00AA960FB6F894D4
:103F8000DEBF0FBECDBFDF91CF911F910895089581
:103F9000CF938091E2018823A1F0C091E900CF7016
:103FA0009091EC00892F817090FD80E8C82B1092D1
:103FB000E9008091E80083FD0E946D1ECF70C093E0
:103FC000E900CF91089597FB072E16F4009407D0CF
:103FD00077FD09D00E94FD1F07FC05D03EF49095A7
:103FE00081959F4F0895709561957F4F0895EE0FCD
:103FF000FF1F0590F491E02D0994AA1BBB1B51E112
:1040000007C0AA1FBB1FA617B70710F0A61BB70B48
:10401000881F991F5A95A9F780959095BC01CD01ED
:104020000895F999FECF92BD81BDF89A992780B580
:104030000895A8E1B0E042E050E00C944520262F1E
:10404000F999FECF92BD81BDF89A019700B402168E
:1040500039F01FBA20BD0FB6F894FA9AF99A0FBE3C
:1040600008950396272F0E9420200E941F20252FAD
:104070000E942020242F0C9420200196272F0E949C
:1040800020200C941F20DC01CB01FC01F999FECF0C
:1040900006C0F2BDE1BDF89A319600B40D924150D0
:0A40A0005040B8F70895F894FFCFE0
:1040AA0084012808140A321EB91858192D19F7184C
:0A40BA00BC1801F73133946697C675
:00000001FF
